:100000006F006048000000000A0300000C030000BD
:1000100000000000000000000000000000000000E0
:1000200000000000000000000000000000000000D0
:1000300084040000000000008404000000000000B0
:100040008404000084040000840400008404000090
:100050008404000084040000840400008404000080
:100060008404000084040000840400008404000070
:100070008404000084040000840400008404000060
:100080008404000084040000840400008404000050
:1000900084040000840400008404000000000000C8
:1000A000511126C022C206C4828282441244A24058
:1000B000310182809377050F1307000A639FE708D9
:1000C0003D8993122500138722000D43B317E300E7
:1000D00013C6F7FF93F73500B396E700B317530045
:1000E00013F7850093C7F7FF15E7B715014003A77E
:1000F0000580F98F370700200327070033175700C3
:100100005D8F23A0E58083A70580F18FD58F23A085
:10011000F58082803713014083220380B3F7F20019
:100120002320F38083270380F18FD58F2320F38052
:10013000A94693F7B500639AD7148326C3808547F1
:10014000B397A700898593C7F7FF8589F58F339506
:10015000A5005D8D2326A38082801307000C639683
:10016000E7083D8913132500130723008D4793F6F5
:1001700035003396E700B396E600B397670013F7B0
:1001800085001346F6FF93C7F7FF15E3B715014047
:100190009841F98F370700200327070033176700BE
:1001A0005D8F98C19C41F18FD58F9CC1828037179C
:1001B000014003230700B377F3001CC31C43F18FF6
:1001C000D58F1CC3A94693F7B5006390D70C54474D
:1001D0008547B397A700898593C7F7FF8589F58F72
:1001E0003395A5005D8D48C782801307000D639E7F
:1001F000E7083D8993122500138722000D43B317AA
:10020000E30013C6F7FF93F73500B396E700B31783
:10021000530013F7850093C7F7FF15E7B7150140A3
:1002200003A70540F98F370700200327070033177E
:1002300057005D8F23A0E54083A70540F18FD58F40
:1002400023A0F54082803713014083220340B3F797
:10025000F2002320F34083270340F18FD58F232022
:10026000F340A94693F7B5006391D7028326C340B4
:100270008547B397A700898593C7F7FF8589F58FD1
:10028000B395A500DD8D2326B34082809377050FBB
:100290001307000A6393E702371701408326C780DC
:1002A0003D898547B397A70093C7F7FFF58F33952F
:1002B000A500C98F2326F78082801307000C639165
:1002C000E7023717014054473D898547B397A70098
:1002D00093C7F7FFF58F3395A500C98F5CC7828060
:1002E0001307000D6392E702371701408326C740CA
:1002F0003D898547B397A70093C7F7FFF58F3395DF
:10030000A5005D8D2326A740828001A001A0EFF209
:100310003FD9611181451305100A0964613B13043B
:10032000047185451305100A953702C08247635E44
:10033000F40081451305100A913F02C29247E3423F
:10034000F4FE924785073EC2D5BF824785073EC06F
:10035000F1BFEFF2FFD4371402401C403707FFF81B
:10036000611193E717001CC05C404145F98F5CC0E8
:100370001C403707F7FE7D17F98F1CC01C4037075C
:10038000FCFF7D17F98F1CC05C4041777D17F98F0A
:100390005CC0B7079F001CC49D2A1C4C3706020096
:1003A00093E707021CCCB717014003A707409386C9
:1003B00007401377F7F023A0E74003A70740136730
:1003C000070823A0E74089479CCA02C002C21C4C10
:1003D00037070140A16693E717001CCC5C43D58F1B
:1003E0005CC31C404167B7160240D98F1CC0096727
:1003F0009C42F18F3EC2824785073EC0924781E70B
:100400008247E397E7FEB71702409C431397E70044
:100410006358070685473EC2124785476310F706B3
:10042000B72702409843C176FD16719B98C3984345
:100430001367170098C3B7170240D843D8C3D843EF
:10044000758FD8C3D843C166558FD8C39843B706B4
:100450000001558F98C3984393166700E3DD06FEAD
:10046000D843B7160240719BD8C3D84313672700FF
:10047000D8C32147DC42B18BE39EE7FE210135B1B1
:1004800002C259BF01A09701002093812138138136
:1004900081FF13050052970500209385A5B6170626
:1004A00000201306A6B663FAC5008322050023A028
:1004B000550011059105E3EAC5FE17050020130557
:1004C000E5B497050020938565B46377B5002320D4
:1004D00005001105E36DB5FEB72200009382028886
:1004E000739002308D427390428097020000938295
:1004F00062B193E2320073905230EFF09FE59702C1
:100500000000938202E17390123473002030371799
:1005100002401C430E0593F777F05D8D08C382807F
:080520000100000000000000D2
:00000001FF
